{
  "contractName": "Change",
  "abi": [
    {
      "inputs": [],
      "payable": false,
      "stateMutability": "nonpayable",
      "type": "constructor"
    },
    {
      "constant": true,
      "inputs": [],
      "name": "manager",
      "outputs": [
        {
          "internalType": "address",
          "name": "",
          "type": "address"
        }
      ],
      "payable": false,
      "stateMutability": "view",
      "type": "function"
    },
    {
      "constant": true,
      "inputs": [],
      "name": "petitionCount",
      "outputs": [
        {
          "internalType": "uint256",
          "name": "",
          "type": "uint256"
        }
      ],
      "payable": false,
      "stateMutability": "view",
      "type": "function"
    },
    {
      "constant": true,
      "inputs": [
        {
          "internalType": "uint256",
          "name": "",
          "type": "uint256"
        }
      ],
      "name": "petitions",
      "outputs": [
        {
          "internalType": "uint256",
          "name": "id",
          "type": "uint256"
        },
        {
          "internalType": "string",
          "name": "title",
          "type": "string"
        },
        {
          "internalType": "string",
          "name": "description",
          "type": "string"
        },
        {
          "internalType": "uint256",
          "name": "donation",
          "type": "uint256"
        },
        {
          "internalType": "address payable",
          "name": "recipient",
          "type": "address"
        },
        {
          "internalType": "address",
          "name": "creator",
          "type": "address"
        },
        {
          "internalType": "uint256",
          "name": "signedCount",
          "type": "uint256"
        },
        {
          "internalType": "uint256",
          "name": "goalCount",
          "type": "uint256"
        },
        {
          "internalType": "string",
          "name": "petitioning",
          "type": "string"
        },
        {
          "internalType": "uint8",
          "name": "category",
          "type": "uint8"
        },
        {
          "internalType": "bool",
          "name": "expired",
          "type": "bool"
        }
      ],
      "payable": false,
      "stateMutability": "view",
      "type": "function"
    },
    {
      "constant": true,
      "inputs": [
        {
          "internalType": "uint256",
          "name": "id",
          "type": "uint256"
        },
        {
          "internalType": "address",
          "name": "user",
          "type": "address"
        }
      ],
      "name": "isSigned",
      "outputs": [
        {
          "internalType": "bool",
          "name": "",
          "type": "bool"
        }
      ],
      "payable": false,
      "stateMutability": "view",
      "type": "function"
    },
    {
      "constant": false,
      "inputs": [
        {
          "internalType": "uint256",
          "name": "id",
          "type": "uint256"
        }
      ],
      "name": "sign",
      "outputs": [],
      "payable": false,
      "stateMutability": "nonpayable",
      "type": "function"
    },
    {
      "constant": false,
      "inputs": [
        {
          "internalType": "uint256",
          "name": "id",
          "type": "uint256"
        },
        {
          "internalType": "uint256",
          "name": "donation",
          "type": "uint256"
        }
      ],
      "name": "donate",
      "outputs": [],
      "payable": true,
      "stateMutability": "payable",
      "type": "function"
    },
    {
      "constant": false,
      "inputs": [
        {
          "internalType": "uint256",
          "name": "id",
          "type": "uint256"
        }
      ],
      "name": "completePetition",
      "outputs": [],
      "payable": true,
      "stateMutability": "payable",
      "type": "function"
    },
    {
      "constant": false,
      "inputs": [
        {
          "internalType": "string",
          "name": "title",
          "type": "string"
        },
        {
          "internalType": "string",
          "name": "description",
          "type": "string"
        },
        {
          "internalType": "string",
          "name": "petitioning",
          "type": "string"
        },
        {
          "internalType": "uint256",
          "name": "goal",
          "type": "uint256"
        },
        {
          "internalType": "uint8",
          "name": "categoryIndex",
          "type": "uint8"
        },
        {
          "internalType": "address payable",
          "name": "recipient",
          "type": "address"
        }
      ],
      "name": "createPetition",
      "outputs": [],
      "payable": false,
      "stateMutability": "nonpayable",
      "type": "function"
    }
  ],
  "bytecode": "0x608060405260006001553480156200001657600080fd5b5033600260006101000a81548173ffffffffffffffffffffffffffffffffffffffff021916908373ffffffffffffffffffffffffffffffffffffffff160217905550620001106040518060400160405280600f81526020017f53616d706c65205065746974696f6e00000000000000000000000000000000008152506040518060400160405280601c81526020017f5468697320697320616e20696e697469616c207065746974696f6e2e000000008152506040518060400160405280600881526020017f536f6d65626f64790000000000000000000000000000000000000000000000008152506103e86001336200011660201b60201c565b62000481565b6200012062000347565b6040518061016001604052806001548152602001888152602001878152602001600081526020018373ffffffffffffffffffffffffffffffffffffffff1681526020013373ffffffffffffffffffffffffffffffffffffffff168152602001600081526020018581526020018681526020018460ff1681526020016000151581525090506000819080600181540180825580915050906001820390600052602060002090600b020160009091929091909150600082015181600001556020820151816001019080519060200190620001fa929190620003d2565b50604082015181600201908051906020019062000219929190620003d2565b506060820151816003015560808201518160040160006101000a81548173ffffffffffffffffffffffffffffffffffffffff021916908373ffffffffffffffffffffffffffffffffffffffff16021790555060a08201518160050160006101000a81548173ffffffffffffffffffffffffffffffffffffffff021916908373ffffffffffffffffffffffffffffffffffffffff16021790555060c0820151816006015560e08201518160070155610100820151816008019080519060200190620002e5929190620003d2565b506101208201518160090160006101000a81548160ff021916908360ff1602179055506101408201518160090160016101000a81548160ff02191690831515021790555050505060016000815480929190600101919050555050505050505050565b60405180610160016040528060008152602001606081526020016060815260200160008152602001600073ffffffffffffffffffffffffffffffffffffffff168152602001600073ffffffffffffffffffffffffffffffffffffffff168152602001600081526020016000815260200160608152602001600060ff1681526020016000151581525090565b828054600181600116156101000203166002900490600052602060002090601f016020900481019282601f106200041557805160ff191683800117855562000446565b8280016001018555821562000446579182015b828111156200044557825182559160200191906001019062000428565b5b50905062000455919062000459565b5090565b6200047e91905b808211156200047a57600081600090555060010162000460565b5090565b90565b61122c80620004916000396000f3fe60806040526004361061007b5760003560e01c80633e6d21fa1161004e5780633e6d21fa14610347578063481c6a75146103ba57806361ab1f09146104115780638856233d1461043c5761007b565b80630cdd53f61461008057806324382076146100b85780632fb1b25f146100e65780633ad50ded14610121575b600080fd5b6100b66004803603604081101561009657600080fd5b810190808035906020019092919080359060200190929190505050610669565b005b6100e4600480360360208110156100ce57600080fd5b810190808035906020019092919050505061073d565b005b3480156100f257600080fd5b5061011f6004803603602081101561010957600080fd5b810190808035906020019092919050505061096c565b005b34801561012d57600080fd5b5061015a6004803603602081101561014457600080fd5b8101908080359060200190929190505050610b26565b604051808c815260200180602001806020018b81526020018a73ffffffffffffffffffffffffffffffffffffffff1673ffffffffffffffffffffffffffffffffffffffff1681526020018973ffffffffffffffffffffffffffffffffffffffff1673ffffffffffffffffffffffffffffffffffffffff168152602001888152602001878152602001806020018660ff1660ff1681526020018515151515815260200184810384528e818151815260200191508051906020019080838360005b83811015610234578082015181840152602081019050610219565b50505050905090810190601f1680156102615780820380516001836020036101000a031916815260200191505b5084810383528d818151815260200191508051906020019080838360005b8381101561029a57808201518184015260208101905061027f565b50505050905090810190601f1680156102c75780820380516001836020036101000a031916815260200191505b50848103825287818151815260200191508051906020019080838360005b838110156103005780820151818401526020810190506102e5565b50505050905090810190601f16801561032d5780820380516001836020036101000a031916815260200191505b509e50505050505050505050505050505060405180910390f35b34801561035357600080fd5b506103a06004803603604081101561036a57600080fd5b8101908080359060200190929190803573ffffffffffffffffffffffffffffffffffffffff169060200190929190505050610daf565b604051808215151515815260200191505060405180910390f35b3480156103c657600080fd5b506103cf610e27565b604051808273ffffffffffffffffffffffffffffffffffffffff1673ffffffffffffffffffffffffffffffffffffffff16815260200191505060405180910390f35b34801561041d57600080fd5b50610426610e4d565b6040518082815260200191505060405180910390f35b34801561044857600080fd5b50610667600480360360c081101561045f57600080fd5b810190808035906020019064010000000081111561047c57600080fd5b82018360208201111561048e57600080fd5b803590602001918460018302840111640100000000831117156104b057600080fd5b91908080601f016020809104026020016040519081016040528093929190818152602001838380828437600081840152601f19601f8201169050808301925050505050505091929192908035906020019064010000000081111561051357600080fd5b82018360208201111561052557600080fd5b8035906020019184600183028401116401000000008311171561054757600080fd5b91908080601f016020809104026020016040519081016040528093929190818152602001838380828437600081840152601f19601f820116905080830192505050505050509192919290803590602001906401000000008111156105aa57600080fd5b8201836020820111156105bc57600080fd5b803590602001918460018302840111640100000000831117156105de57600080fd5b91908080601f016020809104026020016040519081016040528093929190818152602001838380828437600081840152601f19601f82011690508083019250505050505050919291929080359060200190929190803560ff169060200190929190803573ffffffffffffffffffffffffffffffffffffffff169060200190929190505050610e53565b005b600080838154811061067757fe5b90600052602060002090600b020190508060090160019054906101000a900460ff161561070c576040517f08c379a00000000000000000000000000000000000000000000000000000000081526004018080602001828103825260188152602001807f546865207065746974696f6e20697320657870697265642e000000000000000081525060200191505060405180910390fd5b816000848154811061071a57fe5b90600052602060002090600b020160030160008282540192505081905550505050565b600260009054906101000a900473ffffffffffffffffffffffffffffffffffffffff1673ffffffffffffffffffffffffffffffffffffffff163373ffffffffffffffffffffffffffffffffffffffff16146107e3576040517f08c379a00000000000000000000000000000000000000000000000000000000081526004018080602001828103825260268152602001806111d26026913960400191505060405180910390fd5b60008082815481106107f157fe5b90600052602060002090600b020190508060050160009054906101000a900473ffffffffffffffffffffffffffffffffffffffff1673ffffffffffffffffffffffffffffffffffffffff163373ffffffffffffffffffffffffffffffffffffffff16146108c6576040517f08c379a000000000000000000000000000000000000000000000000000000000815260040180806020018281038252601f8152602001807f596f7520617265206e6f74206f776e657220746865207065746974696f6e210081525060200191505060405180910390fd5b8060090160019054906101000a900460ff161561094b576040517f08c379a00000000000000000000000000000000000000000000000000000000081526004018080602001828103825260208152602001807f546865207065746974696f6e206973206578706972656420616c72656164792e81525060200191505060405180910390fd5b60018160090160016101000a81548160ff0219169083151502179055505050565b600080828154811061097a57fe5b90600052602060002090600b0201905080600a0160003373ffffffffffffffffffffffffffffffffffffffff1673ffffffffffffffffffffffffffffffffffffffff16815260200190815260200160002060009054906101000a900460ff1615610a2f576040517f08c379a00000000000000000000000000000000000000000000000000000000081526004018080602001828103825260258152602001806111ad6025913960400191505060405180910390fd5b8060090160019054906101000a900460ff1615610ab4576040517f08c379a00000000000000000000000000000000000000000000000000000000081526004018080602001828103825260188152602001807f546865207065746974696f6e20697320657870697265642e000000000000000081525060200191505060405180910390fd5b600181600a0160003373ffffffffffffffffffffffffffffffffffffffff1673ffffffffffffffffffffffffffffffffffffffff16815260200190815260200160002060006101000a81548160ff02191690831515021790555080600601600081548092919060010191905055505050565b60008181548110610b3357fe5b90600052602060002090600b0201600091509050806000015490806001018054600181600116156101000203166002900480601f016020809104026020016040519081016040528092919081815260200182805460018160011615610100020316600290048015610be55780601f10610bba57610100808354040283529160200191610be5565b820191906000526020600020905b815481529060010190602001808311610bc857829003601f168201915b505050505090806002018054600181600116156101000203166002900480601f016020809104026020016040519081016040528092919081815260200182805460018160011615610100020316600290048015610c835780601f10610c5857610100808354040283529160200191610c83565b820191906000526020600020905b815481529060010190602001808311610c6657829003601f168201915b5050505050908060030154908060040160009054906101000a900473ffffffffffffffffffffffffffffffffffffffff16908060050160009054906101000a900473ffffffffffffffffffffffffffffffffffffffff1690806006015490806007015490806008018054600181600116156101000203166002900480601f016020809104026020016040519081016040528092919081815260200182805460018160011615610100020316600290048015610d7f5780601f10610d5457610100808354040283529160200191610d7f565b820191906000526020600020905b815481529060010190602001808311610d6257829003601f168201915b5050505050908060090160009054906101000a900460ff16908060090160019054906101000a900460ff1690508b565b60008060008481548110610dbf57fe5b90600052602060002090600b0201905080600a0160008473ffffffffffffffffffffffffffffffffffffffff1673ffffffffffffffffffffffffffffffffffffffff16815260200190815260200160002060009054906101000a900460ff1691505092915050565b600260009054906101000a900473ffffffffffffffffffffffffffffffffffffffff1681565b60015481565b610e5b61107c565b6040518061016001604052806001548152602001888152602001878152602001600081526020018373ffffffffffffffffffffffffffffffffffffffff1681526020013373ffffffffffffffffffffffffffffffffffffffff168152602001600081526020018581526020018681526020018460ff1681526020016000151581525090506000819080600181540180825580915050906001820390600052602060002090600b020160009091929091909150600082015181600001556020820151816001019080519060200190610f33929190611107565b506040820151816002019080519060200190610f50929190611107565b506060820151816003015560808201518160040160006101000a81548173ffffffffffffffffffffffffffffffffffffffff021916908373ffffffffffffffffffffffffffffffffffffffff16021790555060a08201518160050160006101000a81548173ffffffffffffffffffffffffffffffffffffffff021916908373ffffffffffffffffffffffffffffffffffffffff16021790555060c0820151816006015560e0820151816007015561010082015181600801908051906020019061101a929190611107565b506101208201518160090160006101000a81548160ff021916908360ff1602179055506101408201518160090160016101000a81548160ff02191690831515021790555050505060016000815480929190600101919050555050505050505050565b60405180610160016040528060008152602001606081526020016060815260200160008152602001600073ffffffffffffffffffffffffffffffffffffffff168152602001600073ffffffffffffffffffffffffffffffffffffffff168152602001600081526020016000815260200160608152602001600060ff1681526020016000151581525090565b828054600181600116156101000203166002900490600052602060002090601f016020900481019282601f1061114857805160ff1916838001178555611176565b82800160010185558215611176579182015b8281111561117557825182559160200191906001019061115a565b5b5090506111839190611187565b5090565b6111a991905b808211156111a557600081600090555060010161118d565b5090565b9056fe596f75206861766520616c7265616479207369676e656420746865207065746974696f6e2e4f6e6c7920746865206f776e65722063616e2063616c6c20746869732066756e6374696f6e2ea265627a7a723158205160f3970601607e4ddfb68d90e32f5cd690887da75439b22411b984d498c23664736f6c63430005100032",
  "source": "pragma solidity >=0.4.21 <0.7.0;\n\ncontract Change {\n    struct Petition {\n        uint256 id;\n        string title;\n        string description;\n        uint256 donation;\n        address payable recipient;\n        address creator;\n        uint256 signedCount;\n        uint256 goalCount;\n        string petitioning;\n        uint8 category;\n        bool expired;\n        mapping(address => bool) signs;\n    }\n\n    Petition[] public petitions;\n    uint256 public petitionCount = 0;\n    address public manager;\n\n    modifier restricted() {\n        require(\n            msg.sender == manager,\n            \"Only the owner can call this function.\"\n        );\n        _;\n    }\n\n    constructor() public {\n        manager = msg.sender;\n        createPetition({\n            title: \"Sample Petition\",\n            description: \"This is an initial petition.\",\n            petitioning: \"Somebody\",\n            goal: 1000,\n            recipient: msg.sender,\n            categoryIndex: 1\n        });\n    }\n\n    function isSigned(uint256 id, address user) public view returns (bool) {\n        Petition storage petition = petitions[id];\n        return petition.signs[user];\n    }\n\n    function sign(uint256 id) public {\n        Petition storage petition = petitions[id];\n        require(\n            !petition.signs[msg.sender],\n            \"You have already signed the petition.\"\n        );\n        require(!petition.expired, \"The petition is expired.\");\n        petition.signs[msg.sender] = true;\n        petition.signedCount++;\n    }\n\n    function donate(uint256 id, uint256 donation) public payable {\n        Petition storage petition = petitions[id];\n        require(!petition.expired, \"The petition is expired.\");\n\n        petitions[id].donation += donation;\n    }\n\n    function completePetition(uint256 id) public payable restricted {\n        Petition storage petition = petitions[id];\n        require(\n            msg.sender == petition.creator,\n            \"You are not owner the petition!\"\n        );\n        require(!petition.expired, \"The petition is expired already.\");\n\n        if (petition.donation > 0) {\n            // Transfer the donation\n            // petition.recipient.call{value: petition.donation}(\"\");\n        }\n\n        petition.expired = true;\n    }\n\n    function createPetition(\n        string memory title,\n        string memory description,\n        string memory petitioning,\n        uint256 goal,\n        uint8 categoryIndex,\n        address payable recipient\n    ) public {\n        Petition memory newPetition = Petition({\n            id: petitionCount,\n            title: title,\n            description: description,\n            recipient: recipient,\n            category: categoryIndex,\n            goalCount: goal,\n            petitioning: petitioning,\n            donation: 0,\n            signedCount: 0,\n            creator: msg.sender,\n            expired: false\n        });\n\n        petitions.push(newPetition);\n        petitionCount++;\n    }\n}\n",
  "sourcePath": "C:\\Users\\7alip\\code\\projects\\change-dapp\\petition-dapp\\contracts\\Change.sol",
  "compiler": {
    "name": "solc",
    "version": "0.5.16+commit.9c3226ce.Emscripten.clang"
  },
  "schemaVersion": "3.2.0",
  "updatedAt": "2020-06-12T09:29:53.414Z",
  "networkType": "ethereum",
  "devdoc": {
    "methods": {}
  },
  "userdoc": {
    "methods": {}
  }
}